{
  "address": "0xbe0fF3B6fB89E5aC9FfC003B9CF87AED495cBa61",
  "abi": [
    {
      "inputs": [
        {
          "internalType": "address",
          "name": "_tokenAddress",
          "type": "address"
        },
        {
          "internalType": "bytes32",
          "name": "_root",
          "type": "bytes32"
        }
      ],
      "stateMutability": "nonpayable",
      "type": "constructor"
    },
    {
      "inputs": [
        {
          "internalType": "address",
          "name": "owner",
          "type": "address"
        }
      ],
      "name": "OwnableInvalidOwner",
      "type": "error"
    },
    {
      "inputs": [
        {
          "internalType": "address",
          "name": "account",
          "type": "address"
        }
      ],
      "name": "OwnableUnauthorizedAccount",
      "type": "error"
    },
    {
      "anonymous": false,
      "inputs": [
        {
          "indexed": true,
          "internalType": "address",
          "name": "account",
          "type": "address"
        },
        {
          "indexed": false,
          "internalType": "uint256",
          "name": "amount",
          "type": "uint256"
        }
      ],
      "name": "Claimed",
      "type": "event"
    },
    {
      "anonymous": false,
      "inputs": [
        {
          "indexed": false,
          "internalType": "bytes32",
          "name": "oldRoot",
          "type": "bytes32"
        },
        {
          "indexed": false,
          "internalType": "bytes32",
          "name": "newRoot",
          "type": "bytes32"
        }
      ],
      "name": "MerkleRootUpdated",
      "type": "event"
    },
    {
      "anonymous": false,
      "inputs": [
        {
          "indexed": true,
          "internalType": "address",
          "name": "previousOwner",
          "type": "address"
        },
        {
          "indexed": true,
          "internalType": "address",
          "name": "newOwner",
          "type": "address"
        }
      ],
      "name": "OwnershipTransferred",
      "type": "event"
    },
    {
      "inputs": [
        {
          "internalType": "uint256",
          "name": "_amount",
          "type": "uint256"
        },
        {
          "internalType": "bytes32[]",
          "name": "_proof",
          "type": "bytes32[]"
        }
      ],
      "name": "claim",
      "outputs": [],
      "stateMutability": "nonpayable",
      "type": "function"
    },
    {
      "inputs": [
        {
          "internalType": "address",
          "name": "",
          "type": "address"
        }
      ],
      "name": "hasClaimed",
      "outputs": [
        {
          "internalType": "bool",
          "name": "",
          "type": "bool"
        }
      ],
      "stateMutability": "view",
      "type": "function"
    },
    {
      "inputs": [],
      "name": "merkleRoot",
      "outputs": [
        {
          "internalType": "bytes32",
          "name": "",
          "type": "bytes32"
        }
      ],
      "stateMutability": "view",
      "type": "function"
    },
    {
      "inputs": [],
      "name": "owner",
      "outputs": [
        {
          "internalType": "address",
          "name": "",
          "type": "address"
        }
      ],
      "stateMutability": "view",
      "type": "function"
    },
    {
      "inputs": [],
      "name": "renounceOwnership",
      "outputs": [],
      "stateMutability": "nonpayable",
      "type": "function"
    },
    {
      "inputs": [
        {
          "internalType": "bytes32",
          "name": "_newRoot",
          "type": "bytes32"
        }
      ],
      "name": "setMerkleRoot",
      "outputs": [],
      "stateMutability": "nonpayable",
      "type": "function"
    },
    {
      "inputs": [],
      "name": "token",
      "outputs": [
        {
          "internalType": "contract MyMintableToken",
          "name": "",
          "type": "address"
        }
      ],
      "stateMutability": "view",
      "type": "function"
    },
    {
      "inputs": [
        {
          "internalType": "address",
          "name": "newOwner",
          "type": "address"
        }
      ],
      "name": "transferOwnership",
      "outputs": [],
      "stateMutability": "nonpayable",
      "type": "function"
    }
  ],
  "transactionHash": "0x622cf8608338fc8910bc15952b5026ee69f41c4e6ff4711d152855f9ccbe3379",
  "args": [
    "0x5b97F941c6eDb22863beF75B2f11d7c0789d5A0c",
    "0x79ba8e7b1051944565b6953aeb2351d0d6ef5ef3b62f51f1d210de97776782cf"
  ],
  "numDeployments": 1,
  "solcInputHash": "8a414f93746313183499c264f56c447d",
  "bytecode": "0x60803460d957601f61074738819003918201601f19168301916001600160401b0383118484101760de57808492604094855283398101031260d95780516001600160a01b038116919082900360d95760200151331560c35760008054336001600160a01b0319821681178355604051949290916001600160a01b0316907f8be0079c531659141344cd1fd0a4f28419497f9722a3daafe3b4186f6b6457e09080a3600180546001600160a01b03191691909117905560025561065290816100f58239f35b631e4fbdf760e01b600052600060045260246000fd5b600080fd5b634e487b7160e01b600052604160045260246000fdfe608080604052600436101561001357600080fd5b600090813560e01c9081632eb4a7ab1461056d575080632f52ebb714610277578063715018a61461021157806373b2e80e146101d05780637cb647591461017a5780638da5cb5b14610154578063f2fde38b146100a25763fc0c546a1461007957600080fd5b3461009f578060031936011261009f5760206001600160a01b0360015416604051908152f35b80fd5b503461009f57602036600319011261009f576004356001600160a01b038116809103610150576100d06105da565b8015610124576001600160a01b0382548273ffffffffffffffffffffffffffffffffffffffff198216178455167f8be0079c531659141344cd1fd0a4f28419497f9722a3daafe3b4186f6b6457e08380a380f35b6024827f1e4fbdf700000000000000000000000000000000000000000000000000000000815280600452fd5b5080fd5b503461009f578060031936011261009f576001600160a01b036020915416604051908152f35b503461009f57602036600319011261009f577ffd69edeceaf1d6832d935be1fba54ca93bf17e71520c6c9ffc08d6e9529f875760406004356101ba6105da565b600254908060025582519182526020820152a180f35b503461009f57602036600319011261009f576004356001600160a01b0381168091036101505760408260ff9260209452600384522054166040519015158152f35b503461009f578060031936011261009f5761022a6105da565b806001600160a01b03815473ffffffffffffffffffffffffffffffffffffffff1981168355167f8be0079c531659141344cd1fd0a4f28419497f9722a3daafe3b4186f6b6457e08280a380f35b503461009f57604036600319011261009f57600435906024359067ffffffffffffffff821161009f573660238301121561009f5781600401359267ffffffffffffffff8411610150578360051b906024828501013681116105695760405160208101903360601b8252601481526102ef603482610589565b51902090600254956103076020604051960186610589565b878552602401602085015b828210610559575050509483955b83518710156103635760208760051b85010151908181106000146103525785526020526001604085205b960195610320565b90855260205260016040852061034a565b908585920361051557338252600360205260ff6040832054166104d157821561048d571561044957338152600360205260408120600160ff198254161790556001600160a01b0360015416803b15610150578180916044604051809481937f484b973c0000000000000000000000000000000000000000000000000000000083523360048401528860248401525af1801561043e5761042e575b50906040519081527fd8138f8a3f377c5259ca548e70e4c2de94f129f5a11036a15b69513cba2b426a60203392a280f35b8161043891610589565b826103fd565b6040513d84823e3d90fd5b606460405162461bcd60e51b815260206004820152600d60248201527f496e76616c69642050726f6f66000000000000000000000000000000000000006044820152fd5b606460405162461bcd60e51b815260206004820152600e60248201527f496e76616c696420416d6f756e740000000000000000000000000000000000006044820152fd5b606460405162461bcd60e51b815260206004820152601360248201527f416c726561647920436c61696d656420212121000000000000000000000000006044820152fd5b606460405162461bcd60e51b815260206004820152601760248201527f4e6f742057686974656c697374656420416464726573730000000000000000006044820152fd5b8135815260209182019101610312565b8380fd5b9050346101505781600319360112610150576020906002548152f35b90601f8019910116810190811067ffffffffffffffff8211176105ab57604052565b7f4e487b7100000000000000000000000000000000000000000000000000000000600052604160045260246000fd5b6001600160a01b036000541633036105ee57565b7f118cdaa7000000000000000000000000000000000000000000000000000000006000523360045260246000fdfea26469706673582212201374cc1d6790af59986e3829c9e530a55ce242759a97e04c60e4b42723298af864736f6c634300081c0033",
  "devdoc": {
    "errors": {
      "OwnableInvalidOwner(address)": [
        {
          "details": "The owner is not a valid owner account. (eg. `address(0)`)"
        }
      ],
      "OwnableUnauthorizedAccount(address)": [
        {
          "details": "The caller account is not authorized to perform an operation."
        }
      ]
    },
    "kind": "dev",
    "methods": {
      "owner()": {
        "details": "Returns the address of the current owner."
      },
      "renounceOwnership()": {
        "details": "Leaves the contract without owner. It will not be possible to call `onlyOwner` functions. Can only be called by the current owner. NOTE: Renouncing ownership will leave the contract without an owner, thereby disabling any functionality that is only available to the owner."
      },
      "transferOwnership(address)": {
        "details": "Transfers ownership of the contract to a new account (`newOwner`). Can only be called by the current owner."
      }
    },
    "version": 1
  },
  "userdoc": {
    "kind": "user",
    "methods": {},
    "version": 1
  },
  "storageLayout": {
    "storage": [
      {
        "astId": 8,
        "contract": "contracts/Airdrop.sol:Airdrop",
        "label": "_owner",
        "offset": 0,
        "slot": "0",
        "type": "t_address"
      },
      {
        "astId": 2056,
        "contract": "contracts/Airdrop.sol:Airdrop",
        "label": "token",
        "offset": 0,
        "slot": "1",
        "type": "t_contract(MyMintableToken)2271"
      },
      {
        "astId": 2058,
        "contract": "contracts/Airdrop.sol:Airdrop",
        "label": "merkleRoot",
        "offset": 0,
        "slot": "2",
        "type": "t_bytes32"
      },
      {
        "astId": 2062,
        "contract": "contracts/Airdrop.sol:Airdrop",
        "label": "hasClaimed",
        "offset": 0,
        "slot": "3",
        "type": "t_mapping(t_address,t_bool)"
      }
    ],
    "types": {
      "t_address": {
        "encoding": "inplace",
        "label": "address",
        "numberOfBytes": "20"
      },
      "t_bool": {
        "encoding": "inplace",
        "label": "bool",
        "numberOfBytes": "1"
      },
      "t_bytes32": {
        "encoding": "inplace",
        "label": "bytes32",
        "numberOfBytes": "32"
      },
      "t_contract(MyMintableToken)2271": {
        "encoding": "inplace",
        "label": "contract MyMintableToken",
        "numberOfBytes": "20"
      },
      "t_mapping(t_address,t_bool)": {
        "encoding": "mapping",
        "key": "t_address",
        "label": "mapping(address => bool)",
        "numberOfBytes": "32",
        "value": "t_bool"
      }
    }
  }
}